:020000040000FA
:10000000C807002091010000B1010000B301000009
:1000100000000000000000000000000000000000E0
:10002000000000000000000000000000C50100000A
:100030000000000000000000C7010000C90100002E
:1000400049230000B9430000752F0000992F0000DC
:10005000BD2F0000F12F0000F93C00005D3E0000C4
:100060000D410000A141000035420000C9420000DE
:100070005D43000099430000CB010000CB0100006C
:10008000CB010000CB010000C53000003D31000075
:10009000CB010000CB010000CB010000CB01000030
:1000A000CB010000CB010000CB010000CB01000020
:1000B0005D3F000059200000CB010000CB01000093
:1000C00000F002F800F055F80CA030C808382418E9
:1000D0002D18A246671EAB4654465D46AC4201D180
:1000E00000F047F87E460F3E0FCCB646012633425D
:1000F00000D0FB1AA246AB4633431847E84F000036
:1001000008500000103A02D378C878C1FAD85207D4
:1001100001D330C830C101D504680C6070470000BD
:100120000023002400250026103A01D378C1FBD813
:10013000520700D330C100D50B60704710B5652958
:1001400002D104F0CFFE10BD782902D100F09AF858
:1001500010BD002010BD1FB5C046C04601F0BEFB5B
:1001600004000020002104F0A1FDE0601FBD10B5D7
:1001700010BD01F00DFF1146FFF7EDFF04F0E6FBA7
:1001800001F025FF03B4FFF7F2FF03BC04F0C6F94A
:100190001648174901601749016017490160174A5D
:1001A0001749116000210160164880471648004732
:1001B000FEE706980188154A914202D10430069064
:1001C0007047FEE7FEE7FEE7FEE7FEE7104811494D
:1001D0000F4A114B70470000ABBE01E00020704792
:1001E000002A00D01060012070470000000100507C
:1001F0005900000016000000880000002400005094
:10020000A55A000009410000C1000000ABBE00007B
:10021000C8030020C8070020C80300200FB4054908
:1002200010B503AA029801F0DDF810BC08BC04B0B8
:1002300018470000C401002070B5044685690068B5
:100240003026C10600D42026C00707D070BD6268E2
:100250003046A1689047206A401C20626D1EF6D58A
:1002600070BD70B5044685690068C00707D170BDD0
:100270006268A16820209047206A401C20626D1EA1
:10028000F6D570BD70B504460D4621461068C046CF
:10029000C0462168090502D50F4A7A4402E00E4A99
:1002A0007A440E3223460021243305E00607360F38
:1002B000965D5E54491C00090028F7D12068002390
:1002C000000705D5702D03D0002901D0113202237B
:1002D000204600F016FE70BD664C0000F3B50546E2
:1002E000002081B0BEE0E96828468847002876D023
:1002F000252802D06A68A968B1E05C4F00267F44D7
:100300002846E96888472028044608DB312C06D2B5
:10031000381920380078002801D00643F0E7B007EC
:1003200001D5042086430020E8610746A8612A2CF5
:100330000BD02146012230390A292BD2002A29D09C
:10034000B80040190090816119E00298BA00521972
:1003500002C8916102902846E9688847012F044647
:100360001AD1E869002822DA202086431FE000988D
:100370000A2180694843009900193038886128466D
:10038000E968884704460120214630390A2901D20C
:100390000028ECD1012F0AD02E2C08D12846E9687C
:1003A00088470446202006437F1C022FBFDBA86934
:1003B000002803DA4042A86101200643F00701D07B
:1003C000102086436C2C0BD0682C09D04C2C38D0D4
:1003D0006A2C36D0742C34D07A2C32D016E043E01C
:1003E000E968274628468847B842044609D1802054
:1003F0006C2F00D0C000E9680643284688470446B1
:1004000004E040206C2F00D080000643002C2BD04D
:1004100020464138192803D80120C0020643203461
:1004200028462E602146029A1646FFF787FE0028CE
:1004300012D001280DD0F61DF008C000083002903F
:1004400051E700204C2CD6D080206A2CD3D000203D
:10045000D1E7361D029646E76A682046A9689047AC
:10046000286A401C28623EE7286AFEBD2A4C00002C
:10047000002203098B422CD3030A8B4211D30023A1
:100480009C464EE003460B433CD4002243088B427B
:1004900031D303098B421CD3030A8B4201D3944608
:1004A0003FE0C3098B4201D3CB01C01A52418309FB
:1004B0008B4201D38B01C01A524143098B4201D3B5
:1004C0004B01C01A524103098B4201D30B01C01AE0
:1004D0005241C3088B4201D3CB00C01A524183085A
:1004E0008B4201D38B00C01A524143088B4201D387
:1004F0004B00C01A5241411A00D2014652411046E7
:1005000070475DE0CA0F00D04942031000D340425B
:10051000534000229C4603098B422DD3030A8B4291
:1005200012D3FC22890112BA030A8B420CD389012F
:1005300092118B4208D3890192118B4204D3890115
:100540003AD0921100E08909C3098B4201D3CB0153
:10055000C01A524183098B4201D38B01C01A524108
:1005600043098B4201D34B01C01A524103098B420C
:1005700001D30B01C01A5241C3088B4201D3CB00F7
:10058000C01A524183088B4201D38B00C01A5241DA
:10059000D9D243088B4201D34B00C01A5241411AB1
:1005A00000D20146634652415B10104601D34042DF
:1005B000002B00D54942704763465B1000D3404290
:1005C00001B50020C046C04602BD70477047704765
:1005D0000246C80FC00781434B0030B54B405B005B
:1005E0009B0D20D01923DB06C91801231B05994256
:1005F00020DB0324A40704251346AB400BD3002BB8
:1006000004D1EB0613409B001B1904D4012464079A
:10061000002312195941FF231B0599420BD2C9002F
:100620000143500F09E0CB0204D501430803024304
:1006300005D0054830BDFF21C905084330BD084637
:1006400007210905884330BD0000C07FF0B59446FE
:10065000FB4A0E091D091746164015400C46B243C9
:100660005C408BB0002A7ED0AF437CD0002D7BD085
:10067000002E79D0E20F3243521BFF24A40412193A
:100680000792420DCC02C70214436046420DD902C4
:100690001143C2020120C007044301430194080C26
:1006A000140CA44604040B46A34308946446240493
:1006B000E44DA2430994040A7D446419803C2478E3
:1006C0000546654301262D19F605751B6C43E40CA0
:1006D000A41C490B61430919B501691A0E0C3504B4
:1006E000A94361436643090C711889090691F9070A
:1006F00001D00121C907039101997F08CC07274345
:100700004C08069DE10B4D43290C65460E464D43B2
:1007100046437D1BB44100950D4601945D43002482
:100720002E0C240434430E462F045643350C2F431D
:10073000039D3604AD1B039502D200267F1C744135
:10074000009E019DF61BA5410904009601950591A7
:10075000AC08069900256143090C0F4647437C0B02
:10076000ED04254301E02AE14FE1FE0464460F4613
:1007700067437C0B34430294039CFE04A41B039444
:1007800004D2029C0026641C75410294029F009EC4
:10079000019CF61BAC4101940C465C430096660F2D
:1007A0000025E700ED000C4635435443660F3E43F9
:1007B000039FE4003C1B039402D20024761C654195
:1007C000009F019CBE1BAC41B509A4062C43039DB0
:1007D000B606AD092E43039DC900AD060395059DE0
:1007E000691805910699E50B6943090C65460F46A2
:1007F0006F430D464543AE463D46751B7746BC41AB
:1008000000950D4601945D4300242E0C24040F46F0
:10081000344357432D043E0C2E4302962646039D37
:100820003C042C1B039405D2029C3546641C002614
:100830006E410294009F029D019C7D1BB441009576
:100840008D050495059D890A691805910699A508E5
:100850006943090C0D46454300206E0BC00430432C
:10086000EF040D46664675436E0B3E43039FED0451
:100870007D1B02D20027761C7841009FBE1B84415D
:1008800008460194B44658430024460FE40034431C
:10089000C60008465043470F3743C0002D1A02D206
:1008A00000207F1C444166460198F61BA041B40914
:1008B00080062043AC09B6062643B6464C02049E89
:1008C000AD06059FA4190021794105910899764646
:1008D0001943099BB6191343002240419446EA0F7D
:1008E0006F0032430546D61A8D41A84203D9012034
:1008F000844632462846C60F95184041FA0F2A43CF
:100900007D00039565466F00B646D61A0546B44687
:100910008D417646002E01D1A84202D97F1C624645
:100920002846C50FAC4695184041039A0646D20F9B
:100930002A437D00D31A8E416146002901D1B0427D
:1009400002D96D1C30461A46104301D001200443E1
:100950006802059A0021001951410222002902DB98
:10096000012200184941079B4C051B14D318C90AE2
:100970001B05CB1807994205C00AC90720435940F7
:10098000002A09D00124A24006D30024401C614162
:10099000002A01D1400840002B4A002B04DB1C46F2
:1009A000144201D09A4325D1012207989206904221
:1009B00033DC032040070818C10FC90734E00E4696
:1009C00007184E41214D7A42B5411BD36246961815
:1009D0001D465D411D4A7642AA4113D301225205AC
:1009E0004D00D5420BD15C00D4420BD04B4003D517
:1009F000920211430BB0F0BD49004908FAE7E10F3C
:100A0000C90711E000201249F4E70F48014201D064
:100A1000214605E00342F5D0F1E70520400709181B
:100A20000C480143C01241400020E3E759405040C8
:100A300010B54B40424059405040FFF707FE10BDF3
:100A40000000FF07814800000000F07F0000E0FF89
:100A50000000F87FFFFFFF7F1F22030C02D10F224F
:100A6000000402D0030E03D004E0002001467047CA
:100A7000083A0002030F01D1121F0001830F01D1B8
:100A8000921E8000002801DB521E40001205511802
:100A90004205C012411810467047C10FC90700D067
:100AA0004042012292071143D6E701218907D3E78B
:100AB000F0B59D4C0D092646AC46AE430D465D4053
:100AC00089B0002E7ED01E092746B7437AD06746EC
:100AD0002740ED0F3D43264075D02401214272D0BE
:100AE0007419FF25AD04641B0494CC02D9020123C0
:100AF0001B05E40AC90A1C4319432401030F1C43C4
:100B00000B010501110F0B43A00B81032D091601E9
:100B10008C43A90B8A0395439A0B9703BB43360971
:100B20009C46B30B9F03BE430F465F4303972F467C
:100B3000774302964E19BE460796029FDF197E4301
:100B40000597039FF71B7646BE1B77463F0100972C
:100B50000196039FB60BF619B646019E009FB60498
:100B6000BF1902D37646761CB64676467600002F2D
:100B700001D001273E4367467D430695029D2746E7
:100B80006F4300977F00069DBE196F00BD19664632
:100B90009619079FAE467743069D03967D1B0195E8
:100BA0000619059D009F75430296EE1B019D51435A
:100BB0006D1A07465F43F31B019500937546EB06DC
:100BC00006D001E091E08DE06B0901252B4300E0A8
:100BD0006B0900263546B6460E0A2D060906354332
:100BE000CB1876467541AE4600213D0A09063E0601
:100BF0002943F61875466941B646019B00269D0DAE
:100C0000B7022F439B0276469B194F41009900255E
:100C10008E0DAD028902C91835437D4150436246AD
:100C20005443039B029A5A43121A161B0022B70E12
:100C30009301B60175193B435341070B120500059B
:100C400045193A435A4100200306270A20063B4330
:100C5000441814266B41AB4200D2521C01204002C2
:100C6000824203D315260221C94301E00321C9436F
:100C70002020851BAA401F46AF40F3401343204667
:100C8000049AF0401214891809055A180499384337
:100C9000C9075140AC4009D001239C4006D3002332
:100CA000401C5941002C01D1400840001F4B002A34
:100CB00003DB1A4201D08B4312D101220498920621
:100CC000904207DB05204007091819480143C0126C
:100CD000414004E0032040070818C10FC907002065
:100CE00009B0F0BD0020E907FAE706180C464C41B0
:100CF00010487642A04114D394181A465A410D4820
:100D0000644290410DD3012049004005814208D33F
:100D10005900814205D3E90F044AC9070020114355
:100D2000DEE700200449DBE70000FF070000F07F5A
:100D3000FFFFFF7F0000E0FF0000F87F0121C905F1
:100D400041184A00520E0BD0C1100722D206891852
:100D5000400752428A1802D50922120789187047A3
:100D6000090206D501464000F9D0C90FC907002085
:100D70007047420202D0002003497047072109054D
:100D800001431046704700000000F87F70B5FF2453
:100D90002404C609FF25264001352E43C209CB098C
:100DA0000546224023404D40002A6BD0002B69D0DD
:100DB000A24267D0A34265D0002D00DA324601245A
:100DC000E4052143204309020002090AD21A000A5D
:100DD0004B0C7F24E31A434C7C44E35C7D242404C5
:100DE000121914145B00A218884201D3521C00E0AF
:100DF000400049420C465C4324115C43DB0164150E
:100E0000E318040A5C43C502200D0C4644436419F0
:100E1000250A5D432303EC0C0D46654300030019CE
:100E2000EB184C42A34201D35B18401CD405201898
:100E3000002B07D05B00C91804D3401C002901D146
:100E4000400840003F2189048A4209D3002A08DC77
:100E50001106090F04D0032149074018C00FC0072D
:100E600070BD01224100120689187F22520691426C
:100E7000F6D205214907401801D5901070BDFF201A
:100E8000C00570BD002D00DA3246174EA24207D2CF
:100E9000A34205D21802000E17D0E80FC00770BD9C
:100EA000FF2443002406A34216D84900A14213D8C8
:100EB000A34201D1A1420FD0A14201D1002101E002
:100EC00041004908D005084370BD1002000E03D050
:100ED000FF200243D00570BD304670BD4840414000
:100EE000484053E7E14100000000C07F10B500F02A
:100EF000FBFC006810BD10B5044600F0F5FC046072
:100F000010BDFFB504460D4681B024300090216825
:100F1000880604D51022E0699143216000E0012099
:100F20000027A84200DD471B0498A1697A19101810
:100F3000081AA0612068C00602D42046FFF77CF999
:100F4000002608E003986268A168805D9047206AE7
:100F5000401C761C206204988642F3DB2068C006A1
:100F60000AD52046FFF768F906E06268A1683020DC
:100F70009047206A401C206238467F1E0028F4DC1F
:100F800007E000986268A168405D9047206A401CB5
:100F9000206228466D1E0028F3DC2046FFF761F929
:100FA00021680220090600D4012005B0F0BD000030
:100FB0007047FFB50C461E468DB003CA06900791D8
:100FC0004F007D0D00D16D1E002108460020C04657
:100FD0000321079A89050840002A03DA8200801855
:100FE00040080840800D0128089002DD0020C04321
:100FF0000890069807432CD0EB48EC492818484342
:101000000714089840420B901698002839D0754272
:101010000B9A291E00DC089A002900DA694203A80D
:1010200000F0E8FC0699079800F04AFD019101469E
:10103000DF4802920918002D009125DDDC49039854
:101040004942401803906846089A03A900F064FFDB
:1010500022E01698012802D00020302104E0002070
:10106000F24305E02154401CB042FBDB3046002235
:10107000169B002121540D998B600A60486011B0C5
:10108000F0BDBD1B6D1CC3E70399081803906846AB
:10109000089A03A900F00EFF009000040292000CD1
:1010A000019103D00020C043410800E01046169A89
:1010B000002A03D00022009215461EE0751E05D4BA
:1010C00000F018FC303262556D1EF9D5012208433C
:1010D000099602D000227F1C04E02078302801D13C
:1010E00000227F1E002A0A978ED01EE0112D07DAFB
:1010F00000F000FC303262556D1C02460A43F5D107
:1011000008430FD10021681E05E0235C625C635434
:10111000491C2254401E8142F7DBA81B401E099542
:101120000A9002E0009800280AD0099A1699002037
:10113000A0540D980A9B099A0360426081609EE763
:101140001126002016905FE7D21DF0B50D4604462B
:10115000D10895B0C90003C91090119103F068F946
:1011600002461198C10F2D20002906D121682B209D
:101170008B0702D44807C00F4001032A0F9001D00B
:10118000072A05DB03462946204600F0F1FB08E16B
:101190002068800601D5E76900E00627284611216E
:1011A000652D04D0662810D0672D64D128E0002377
:1011B000112F009300DA791C0B4610AA03A90BA883
:1011C000FFF7F7FE00267D1C3EE001200123C0074B
:1011D0000E9010AA03A90BA800933B46FFF7E9FE67
:1011E0000D980C9D0026002802D10B99781C0D1833
:1011F000781B02D44642761E7D1CE81B00903AE024
:10120000012F00DA01270023112F009300DC39465B
:101210000B4610AA03A90BA8FFF7CBFE20683D469A
:10122000002600070BD40C98A84200DA054603A854
:10123000012D04DD41192039C97F302908D00B98D0
:10124000B84201DA011D05DA012000900B9811E087
:101250006D1EEDE7002802DC86192D1A04E0401C03
:10126000A84201DD0B9D6D1C0B98801B401C00905B
:101270000120C0070E902068000705D40098A842FE
:1012800002DB0020C043009069460020C8720E981F
:10129000012102AF0337C907884224D002201290EF
:1012A0002B2013900E9800280BDA40420E902D2030
:1012B000139006E00E9800F0A9F830317F1E0E90D2
:1012C00039701299481E00291290F3DC0E980028FC
:1012D000F0D113987F1E387021684520090500D48D
:1012E00065207F1E387001A8C01BC01D0E900F988E
:1012F000002800D0012041190098C01709180E9845
:101300000818A169081A401EA0612068C00602D40E
:101310002046FEF791FF0F98002805D06268A1686B
:101320009047206A401C20622068C00624D52046D1
:10133000FEF782FF20E0002E07DB0C98B04204DDB0
:1013400003A86268805DA16802E06268A16830203D
:101350009047206A761C401C20620098401E009036
:101360000AD100F0BBFAC06862680168405CA168FD
:101370009047206A401C206228466D1E0028DADC57
:1013800007E062683878A1687F1C9047206A401C9B
:1013900020620E99481E00290E90F2DC2046FEF7CE
:1013A00060FF15B00220F0BD01FCFFFF104D0000F2
:1013B000E1DFFFFF01694A1C02610878704700B550
:1013C0008FB0029100210591054901937944039161
:1013D000114604906846FEF781FF0FB000BD000083
:1013E000E5FFFFFF084B70B50C467B44FFF7E7FFB6
:1013F0000546204603F0F3F9002802D00020C04340
:1014000070BD284670BD0000F93300000146800819
:10141000081A02091018020A1018020C1018C00845
:10142000820012185200891A01E00A39401C0A2968
:10143000FBD27047F0B50C46871A9C410D46861AC0
:101440009D4103D2C01BA141D21963410D0D1F0D57
:10145000C54EEC1BAE435BD07E05760D52D02D05FC
:10146000AC46A943DD020123ED0A1B051D432023E1
:101470001B1B24D41646E640002730184F4129464E
:10148000E1407C189D400021281861410C0D27D1B6
:1014900061449A4012D50023401C594152000DD19D
:1014A00040084000B14A4B00934207D30520400753
:1014B000081801D5511000E0AD490020F0BD6B00C7
:1014C000002A00D001229A18203C1F231B1B01D5A3
:1014D000002303E0E5400024281861410C0DD7D01B
:1014E000012424050919C407CD0740084908E40F61
:1014F00028436144002CD5D00024401C61419A400F
:10150000D0D1CDE76A05520DD8D1C90FC907D4E7AC
:10151000964D4E00002801D0012400E0002434192B
:101520005F00002A01D0012600E00026BE19914F7D
:10153000AC420BD8AE4209D8B44205D0BD00AC4293
:10154000BCD010461946F0BD9942FCD00020394667
:10155000F0BDF0B50C460F46811A9F412546861A0C
:101560009D4106D20125ED076F40401ABC4152183B
:101570007B41210D1E0D8D1BAC467B4D8D437ED0D6
:1015800075056D0D7CD00D05AE46AC431B031B0BE2
:10159000794D52429D41202366469B1B14D337460A
:1015A0001646FE4030180027674164462E46264105
:1015B000BC199D4000262818664116D47146711842
:1015C0009A4025D5012320E093182A466A4152000B
:1015D000002B00D0521C203E1E239B1B002B60DDE5
:1015E0003541EE1728186641E8D5001876415B1C96
:1015F0009A4000D3401C4B05F3181524E3400FD349
:10160000002B51D071467118D30FC01801D3491C5B
:10161000F0BD0123DB079A42FAD140084000F0BD3B
:1016200001225205B21801D1002853D00123CC0A5F
:10163000DB029943891E002A08D1020C03D0020C58
:101640000004103902E00246002020390023550B27
:1016500005D112020823550B01D152010D23550C5F
:1016600001D112011B1DD50C01D192009B1C150D3F
:1016700001D152005B1C2025EE1A054601E02BE04B
:1016800021E0F54015439840CA1AE107691813058F
:10169000C918002AC3DA032040070818C10FC90778
:1016A0000FE071466118F0BDF10740080843711062
:1016B00071444A000CD001235B059A42F3D2C90F52
:1016C000C9070020F0BD4905490D25D1002001E0E2
:1016D0000028F4D10021F0BD244D6600002801D07F
:1016E000012100E0002171185F00002A01D00126CD
:1016F00000E00026BE191F4FA9420FD8AE420DD8F8
:10170000B14207D0BD00A94206D01946A802414007
:101710001046F0BD9C4201D02146F0BD0020394664
:10172000F0BD30B40C465C4004D50124E4076340AE
:1017300030BC0EE730BC7DE630B40C465C4004D5CE
:101740000124E407634030BC74E630BC01E730B4E8
:101750000124E40761400D465D4001D430BC69E6D8
:10176000634030BCF5E60000FF0700000000E0FF2A
:101770000000F07F0000F87F0000F0FF70B5054624
:101780004800440D134B0020002C0AD0634008D0C1
:101790009A4206DA6642B24203DD1205401951410F
:1017A00070BDCE0FF6070020002C07D0002B07D00D
:1017B0003146002AF4DB084A114370BD314670BD42
:1017C00028460A03104302D00020044970BD284671
:1017D00070BD0000FF0700000000F07F0000F87FF0
:1017E000F0B53C4B0D460C0302461D402243002D34
:1017F00062D0394C8B4365D00127002966DB0A0D86
:10180000130599433B051943FD32FA4001D30018F3
:101810004941FF328B0281329446820D13430121EC
:10182000890782024C4200201B198C105D1A04D4D7
:101830002D1B02D42B466500491992185B416408A0
:10184000F4D15C1A08D40125ED07EE17551974413F
:1018500002D423462A46491C94185B410122920770
:101860001D46261A8D4107D40027B61ABD4103D460
:101870002B4655003446401924195B415208802AF2
:10188000EED1234300D002230A22D04001D301220B
:1018900013438A0510436246890A12058918002BF2
:1018A00009D00122D34002D30022401C5141002B19
:1018B00001D140084000F0BD002AFCD0C90FC90783
:1018C0000020F0BD002A01D10029FADA00202146CB
:1018D000F0BD00000000F07F0000F87F0148704775
:1018E000704700BF8403002001487047704700BF65
:1018F000640300200B4670B502461D468907800828
:1019000008439C08111AA5410C092807044328091B
:1019100064186841250A01060D43010A2C1941414A
:10192000200C0D0428430D0C00194D4100214019D5
:101930004D41C00869070843E908840F8D0025431D
:10194000840024184D4124196D41121BAB4107E05E
:101950000925ED432C11521963410024401C6141BB
:101960001C460A250026551BB441F1D270BD00006B
:10197000F8B504461F4601230068DB020326014632
:101980001840072A04DB002816A505D116A503E098
:10199000002816A500D116A5102081432160A0695A
:1019A000C01E002FA06101D0401EA0612046FEF79E
:1019B00043FC002F09D038466268A1689047206A2E
:1019C000401C2062C01C206206E0206AFAE76268C0
:1019D0002878A1686D1C9047761EF8D22046FEF745
:1019E00040FCF8BD4E414E006E616E00494E46000F
:1019F000696E6600F7B516468AB0304878446C4682
:101A000003467C33C06F5A689B680DC42B4B7B44E4
:101A10006E33083303AC0DCB0DC43720C00108185A
:101A200037211B30FEF72EFD05460C46803D1B3C42
:101A300002D56442012000E00020002709900FE059
:101A4000E0070BD00C201D497843794432464E39CB
:101A50004118684600F02EFA6B4607C364107F1CDD
:101A6000002CEDD1154F7F442E3F16E0E80712D031
:101A70002001C01901460EC9069108930792C0685B
:101A8000F04201D198190890324606A903A800F047
:101A900011FA03AB07C36D10641C002DE6D132466A
:101AA00069460998002803A802D000F035FA01E041
:101AB00000F000FA0A9B07C30DB0F0BD50360000DD
:101AC000034640000A4610B5400D0BD00121C9075E
:101AD0000F24A40200191C0364082143540D214360
:101AE000D20207E000210120F2E7D40F4900214390
:101AF0005200401E0029F8DADB0FDB07184310BD47
:101B0000FFB50C46154685B04868516802F06AFC7E
:101B100000910190A068A96802F064FC0291039012
:101B2000A068696802F05EFC029A0126121802920F
:101B30003246029B834200D3002201988B18C018C2
:101B4000002A01903046019A02D08A4203D901E06E
:101B50008A4200D300200099081800906068A968A4
:101B600002F040FC029A121802923246029B834213
:101B700000D3002201988B18C018002A019002D0CF
:101B8000884203D901E0884200D3002600988019DA
:101B90000090206829684000490040084908401822
:101BA000F649471814E001994000C90F0843009016
:101BB000019802994000C90F0843019002980399C7
:101BC0004000C90F08430290039840007F1E039015
:101BD00000980028E7DA0898002801D0E84E00E0D5
:101BE0000026B74228DAF71BF806C00E15D0029B74
:101BF0002021091A039A8B401A430392029A019BEF
:101C0000C2408B401A430292019A009BC2408B4013
:101C100000991A430192C14000917A110BD06B4692
:101C20000320811A01D5002101E08900595887005D
:101C3000401ED951F5D5374603980299002800D0A7
:101C40000120014308980291002808460CD0002882
:101C500000D001200199019A490508430121D20AC7
:101C6000C902D202019200E001210E9B0122D2079B
:101C7000012B02D0002B03D013E0002807D116E07F
:101C8000904204D890420CD1019B0B4209D0019B99
:101C90005918019105D10099491C009101D17F1C6F
:101CA0000092002803D0102108460020C04620687A
:101CB0002968019B009A4840C10F0598C90739431C
:101CC0000EC009B0F0BDFFB587B0099A0898089911
:101CD000099B5268406889689B68039200221746F6
:101CE0009446089A9E4612685300099A5B08126847
:101CF000520052089A1AA34BD4180A9B3522002B83
:101D000000D1402206920022012315460492DB07EF
:101D1000059324E0002D05D175460346039E4D1B17
:101D2000B34109D375466646039B491B049D984100
:101D3000059B7519AC465F4163463B4308D0059B44
:101D4000049EDD0776082E435B080496059301E0A8
:101D5000641E521EC50FED0749184041521C069BD8
:101D60009A42D7DB002D04D17546039A6B1A824143
:101D700001D203200CE0039A0B466B404240134310
:101D800001D1022004E0014301D0012000E0002045
:101D9000614601910021009702910A99002905D01E
:101DA000614640020143764B019102E08007002327
:101DB00002909C423ADA1A1BD006C00E15D0029D42
:101DC0002021019C091AC5408C402543029C8C406F
:101DD00000D001242543019C02953D46C4408D401E
:101DE00039462C43C1400194009154111DD06D46D9
:101DF0000221002202290CD10320001B07E0002849
:101E000004DB8600AE59002E00D00122401C0328BE
:101E1000F5DB081B02D588002A5004E08000285812
:101E200010438A00A850491EE3D51C460A98002892
:101E300002980CD0002800D001200199019A490590
:101E400008430121D20AC902D202019200E0012115
:101E5000109B0122D207012B02D0002B03D013E0EC
:101E6000002807D116E0904204D890420CD1019B83
:101E70000B4209D0019B5918019105D10099491CC9
:101E8000009101D1641C0092002803D01021084663
:101E90000020C04608980999009B006809684840DE
:101EA0000199C20F0798D207224343600260816004
:101EB0000BB0F0BD1FB5002300920A46014601A8F1
:101EC000FFF71EFE01A807C804B010BD1FB501230F
:101ED00000920A46014601A8FFF712FE01980F2260
:101EE0009202C10F4000C9074008801A0190029871
:101EF000002801DB00200190029840004008029079
:101F00000198029A0005D20A104308430299039AE5
:101F10004905D20A1143D7E71FB5002300920A46AC
:101F2000014601A8FFF7CFFE01A807C8CCE71FB5FF
:101F3000012300920A46014601A8FFF7C4FE01985A
:101F40000F229202C10F4000C9074008801A019079
:101F50000298002801DB0020019002984000400810
:101F600002900198029A0005D20A10430843029990
:101F7000039A4905D20A1143A6E7000002C0FFFFF9
:101F8000013C0000FF3F0000004870476403002050
:101F90007546FFF7F9FFAE46050069465346C0088F
:101FA000C000854618B020B5FEF710F960BC0027C8
:101FB0004908B6460026C0C5C0C5C0C5C0C5C0C515
:101FC000C0C5C0C5C0C5403D49008D4670470446E8
:101FD000C046C0462046FEF7D5F80000024670B560
:101FE0000A43920724D11B4DEE0104C808C9541BB3
:101FF0009443344017D0D0B2D9B2401A21060143DD
:1020000010D190B299B2401A210401430AD11002B2
:102010001902000A090A401A2102014302D1100ED6
:10202000190E401A70BD9A42DFD010BA19BAF8E7FB
:1020300002780B78401C491C002A09D09A4207D12B
:1020400002780B78401C491C002A01D09A42EFD03C
:10205000D01A70BD0101010110B52148006BC00705
:10206000C00F01280FD11F480068002804D01E4966
:1020700008681C49096888471948006BC008C000F7
:10208000401C174908631648006B8007C00F0128E1
:102090000FD116480068002804D013494868134936
:1020A000096888470E48006BC008C000801C0C49B6
:1020B00008630B48006B4007C00F01280FD10C4884
:1020C0000068002804D008498868094909688847D9
:1020D0000348006BC008C000001D0149086310BD23
:1020E00000000E40DC010020E8020020E00100209A
:1020F000E4010020F0B587B002F0A6FC7348007937
:1021000073490978884210DD704800797049097870
:10211000401A022809DC6E480078401C6C4908709F
:1021200008460078401C08701AE068480079684941
:102130000978884210DA6548007965490978081AF3
:10214000022809DC62480078401E61490870084690
:102150000078401E087003E05C4800795C49087014
:102160003D2000F065FF0446FEF797FC594A03C284
:102170003B2000F05DFF0446FEF78FFC564A03C289
:102180003F2000F055FF0446FEF787FC534A03C288
:10219000432000F04DFF52490968441A2046FEF7DB
:1021A0007CFC504A03C2452000F042FF4E490968BA
:1021B000441A2046FEF771FC4C4A03C2472000F047
:1021C00037FF4B490968441A2046FEF766FC494A26
:1021D00003C2494903C9FEF7FBF948490860484969
:1021E00003C9FEF7F5F9474908600022464B3A4912
:1021F00003C9FEF72BFA454A03C20022424B374976
:1022000003C9FEF723FA424A03C200223E4B31497A
:1022100003C9FEF71BFA3F4A03C200223E4B314975
:1022200003C9FEF713FA344A03C200223A4B2F497E
:1022300003C9FEF70BFA324A03C20022364B2D497E
:1022400003C9FEF703FA354A03C2314903C9FEF751
:10225000BFF93049069003C9FEF7BAF92B4905903A
:1022600003C9FEF7B5F92E4A2E4B2C49049003C939
:10227000FEF71EFC0446FEF7ABF90646284A294B3A
:102280001F4903C9FEF714FC0446FEF7A1F90746EF
:10229000234A244B184903C9FEF70AFC0446FEF7FB
:1022A00097F90390069B059A0193009232463946AE
:1022B000049B00F0A9FF1C4903C9019100901B4831
:1022C0000CC81BA0FDF7AAFF07B0F0BD64020020F8
:1022D00020000020B8000020B0000020C000002036
:1022E00060000020A0000020640000209800002072
:1022F00068000020A8000020E80000203401002031
:10230000E0000020580100200000C040C80000206C
:10231000D8000020D000002000605040F0000020D5
:102320005F40D42247DF913F1001002008010020C8
:10233000416E676C6520256C6520416E676C657920
:1023400020256C65200D0A0010B505200007806966
:10235000102188431030052109078861034800686F
:10236000002802D001480068804710BDB801002055
:10237000F8B507460E46022F01D3002E02D10020E9
:10238000C043F8BD012411E03046604301463846A1
:10239000FEF76EF80546012D07D90120000685429B
:1023A00003D2601E00062843EBE7641CFF2CEBD928
:1023B0000020C043E5E7000010B50346002901DB1B
:1023C000102901DD054810BD9801054C02199068DF
:1023D00001248C40A04390600020F4E70189FFFFB6
:1023E0000040005070B504460B46002B01DB102B5B
:1023F00001DD184870BDA001174D4119002A03D016
:10240000012A01D0022A17D108685E000325B540D1
:10241000A8430860012A06D108685E000125B5407E
:102420002843086013E0022A11D108685E000225E3
:10243000B540284308600AE0032A06D108685E0018
:102440000325B5402843086001E00248D2E7002098
:10245000D0E700000189FFFF0040005010B503469F
:10246000002901DB102901DD054810BD9801054C4C
:102470000219906801248C40204390600020F4E70A
:102480000189FFFF004000500C4880680F210905BA
:1024900008430A49886005200007C0680321090530
:1024A000084305210907C8600846C06803210905DB
:1024B000884305210907C8607047000000020050EA
:1024C00000487047001BB70070B50025154800692B
:1024D0004007400F01D1144D1AE01248006940072F
:1024E000400F012801D1C50312E00E4800694007E2
:1024F000400F022803D100F01DF8054608E0094806
:1025000000694007400F032801D1084D00E0084D45
:10251000044880690007000F441C21462846FDF747
:10252000A7FF70BD00020050001BB700102700007D
:10253000008051017FB50025184B0FCB6C460FC4AE
:102540001748006A0003C00F012801D1154C00E0B4
:10255000154C1348006AC003C00F012801D10025A3
:1025600019E00F4A126A9204D20E911C0C4A126AA8
:10257000D205D20D921C62431046FDF779FF064644
:102580000748006A0004800F80006A4611583046F0
:10259000FDF76EFF0546284604B070BDF44E0000FE
:1025A0000002005000805101001BB700F3B583B05A
:1025B0000C4625480290002001902448844204D80B
:1025C0004010844201D9002714E02148844205D8F4
:1025D0004010844202D9012764000BE01D48844268
:1025E00005D84010844202D30327A40002E01A4811
:1025F00005B0F0BD0398002802D11348029004E012
:102600000398012801D11548029015492046FDF78D
:102610002FFF064612490298FDF72AFF054608E0FB
:10262000E807C00F02D1F007C00F00D002E06D082C
:102630007608F5E700BFB803A91E49020843B11E9A
:10264000084301900198D3E7001BB70000C2EB0BD1
:1026500000E1F50580F0FA022EC200000080510171
:1026600040420F00F8B5054600262248854202D8B0
:102670004010854201D22048F8BD2048006A00037E
:10268000C00F08D11D48006840084000401C1B498D
:102690000860002607E01948006804218843001DEF
:1026A00016490860012629463046FFF77FFF074696
:1026B000002400E0641C12488442FBD3384600F03A
:1026C00049F90E48006A0121890488430B490862D0
:1026D0000846006AC901884308490862002400E0EE
:1026E000641C07488442FBD3022000F00BF8002052
:1026F000C2E7000080F0FA020696FFFF00020050D9
:102700001027000010B50446072C03DC032C03DD62
:10271000072C01DA074810BD07480069C008C0004F
:102720006107490F08430449086101F0ABFC002030
:10273000F1E700000396FFFF0002005010B50246CB
:10274000134601F067FE0EA4998C7F7265584B3ECC
:10275000331308281DAE5548C0690C2398438B00DD
:102760000C2423401843514BD8619CE04F48C0696A
:10277000800880008B079B0F18434C4BD86192E078
:102780004A48C069C02398438B01C02423401843A2
:10279000464BD86187E04548C069302398430B0118
:1027A000302423401843414BD8617CE03F484069C6
:1027B000800080088B079B0F9B0718433B4B586199
:1027C00071E03A48406903231B0798430B07032431
:1027D000240723401843354B586164E0334840696F
:1027E00003239B0698438B060324A4062340184327
:1027F0002E4B586157E02D48406903231B06984330
:102800000B060324240623401843284B58614AE052
:102810002648406907231B0598430B050724240518
:1028200023401843214B58613DE02048406907236D
:102830001B0498430B0407242404234018431B4B18
:10284000586130E01948406907231B0398430B0384
:102850000724240323401843144B586123E01348F2
:10286000406907231B0298430B02072424022340DC
:1028700018430E4B586116E00C4840690C239843EE
:102880008B000C2423401843084B58610BE0074889
:102890004069800880008B079B0F1843034B5861E9
:1028A00001E0034810BD00BF0020FBE7000200501C
:1028B0000496FFFF0649096A0122D2049143C2042B
:1028C0000123DB041A401143014A116270470000E2
:1028D0000002005010B50246002A06D0012A0ED090
:1028E000022A17D0032A2BD11FE01848006840089D
:1028F0004000CB07DB0F1843144B186022E013484D
:102900000068022398434B000224234018430F4BD6
:10291000186017E00D480068042398438B000424D6
:1029200023401843094B18600CE00848006808234E
:102930009843CB00082423401843044B186001E05F
:10294000034810BD00BF0020FBE70000000200505C
:102950000396FFFF1149096A490A4902C205D20DCF
:1029600011430E4A11621146096A1F225202914315
:10297000420A52021F235B021A401143074A1162A6
:102980001146096A032292039143820B92030323A7
:102990009B031A401143014A116270470002005024
:1029A00010B50446002C06D0012C10D0022C1AD0F1
:1029B000032C30D123E01A480068012149078843DD
:1029C000401817490860082001F09CF825E01448D9
:1029D000006A01214907884340181149086209200B
:1029E00001F090F819E00F48006801214907884379
:1029F00040180C4908600A2001F084F80DE00948ED
:102A0000006A0121490788434018064908620B20E3
:102A100001F078F801E0044810BD00BF0020FBE79A
:102A200000000140000011400197FFFF0120044910
:102A30000860044908600449086004490860704758
:102A4000E8010020EC010020F0010020F40100204A
:102A5000F7B582B00E461746002001900298002874
:102A600006D001284AD002287ED003287DD1D2E0AA
:102A70008E480068012803D18D480068002802D0E4
:102A80008C4805B0F0BD0120894908608A488068FB
:102A900004218843001D8849886000208749086018
:102AA0000846806840084000401C8860002505E01A
:102AB000002114206843824A11506D1C002DF7D06C
:102AC00000208049086080480660002000F0C6FAB7
:102AD00031460090FFF74CFC0446601C02D175485B
:102AE000401ECEE72002000A74494860200E01997A
:102AF0000843F906084371490860D4E07348006848
:102B0000012803D172480068002801D06948B8E75D
:102B100001206F49086068488068082188430830B0
:102B2000654988600020654908620846806A400857
:102B30004000401C8862002505E000211420684305
:102B4000644A11506D1C002DF7D0002062490860C6
:102B500062480660012000F081FA31460090FFF7DC
:102B600007FC0446601C01E010E099E002D15148E6
:102B7000401E86E72002000A50494862200E019953
:102B80000843F90608434D4908628CE05448006840
:102B9000012803D153480068002801D0454870E758
:102BA0000120504908604448806810218843103053
:102BB0004149886000204C49086008468068400808
:102BC0004000401C8860002505E000211420684377
:102BD000464A11506D1C002DF7D000204449086072
:102BE00044480660022000F039FA31460090FFF7B1
:102BF000BFFB0446601C02D12E48401E41E7200264
:102C0000000A39494860200E01990843F906084333
:102C10003549086047E038480068012803D1374843
:102C20000068002801D023482BE7012033490860C1
:102C3000214880682021884320301F498860002077
:102C4000294908620846806A40084000401C8862A2
:102C5000002505E0002114206843294A11506D1C0D
:102C6000002DF7D000202749086027480660032080
:102C700000F0F4F931460090FFF77AFB0446601C3F
:102C800002D10C48401EFCE62002000A16494862A8
:102C9000200E01990843F90608431349086202E02F
:102CA0000448801EEDE600BF0020EAE6E8010020AF
:102CB000F80100200397FFFF0002005000000140D0
:102CC000F4020020180200203C020020EC01002049
:102CD000FC010020080300201C020020400200200C
:102CE000F001002000020020000011401C03002021
:102CF0002002002044020020F401002004020020F1
:102D0000300300202402002048020020FFB50C46BA
:102D1000154600220098002806D0012838D0022845
:102D200069D0032877D19AE068480068002802D06B
:102D3000674804B0F0BD0120664E3060634800680B
:102D4000401C624E306000211EE014204843624E59
:102D50003058002817D10126142048435E4F3E50BA
:102D6000142048433E46801944601420484380198B
:102D70008460142048438019C5601420484380199A
:102D800003610A4602E0491C0129DEDB00BF9AE02C
:102D900052480068002801D04D48CAE70120504E33
:102DA00030604E480068401C4C4E306000211EE0F0
:102DB000142048434B4E3058002817D101261420C8
:102DC0004843484F3E50142048433E4680194460D3
:102DD0001420484380198460142048438019C5603A
:102DE00014204843801903610A4602E0491C012966
:102DF000DEDB00BF67E03C480068002801D03448B3
:102E000097E70120394E306037480068401C364E45
:102E1000306000211FE055E014204843344E305804
:102E2000002817D1012614204843314F3E5014206A
:102E300048433E468019446014204843801984600A
:102E4000142048438019C560142048438019036149
:102E50000A4602E0491C0129DEDB00BF33E02548B9
:102E60000068002801D01A4863E70120224E306034
:102E700020480068401C1F4E306000211EE01420D6
:102E800048431E4E3058002817D1012614204843CD
:102E90001A4F3E50142048433E4680194460142087
:102EA000484380198460142048438019C560142069
:102EB0004843801903610A4602E0491C0129DEDB10
:102EC00000BF00E000BF00BF104632E7280200202C
:102ED0000497FFFF08020020F40200202C020020CB
:102EE0000C02002008030020300200201002002005
:102EF0001C030020340200201402002030030020B4
:102F00000146002906D001290DD0022914D0032939
:102F100024D11AE0144800680122920790438018D7
:102F2000114A10601CE01048006A01229207904389
:102F300080180D4A106213E00C48006801229207C5
:102F400090438018094A10600AE00848006A01228C
:102F5000920790438018054A106201E004487047C8
:102F600000BF0020FBE7000000000140000011400E
:102F70000197FFFF10B5012080030549086205484D
:102F80000068002802D003480068804710BD000098
:102F900040400050D401002010B50120C003054975
:102FA000086205480068002802D00348006880478E
:102FB00010BD000040400050D801002070B50A4804
:102FC000046A09484030056A0748046206484030F0
:102FD000056206480068002804D029462046034AB6
:102FE0001268904770BD000000400050CC010020E6
:102FF00070B50D48046A0C484030056A0A488030B4
:10300000066A094804620848403005620648803074
:10301000066206480068002805D032462946204648
:10302000024B1B68984770BD80400050D0010020C3
:10303000F8B50546284600F059FB0646681C00F026
:1030400055FB07463002C4190120C003844202DD4B
:103050004000201AF8BD2046FCE7000070B5054688
:103060000026002D05D0012D03D0022D01D0032D07
:103070001BD1104840694005440F002C03D1FFF7D5
:103080001FFA064613E0012C02D17D2636020EE01F
:10309000022C03D1FFF74EFA064608E0032C02D1BA
:1030A0000548066803E0054E01E0054870BD30465E
:1030B000FCE70000000200503802002080B14F0100
:1030C0000197FFFF10B51B48C4684069C007C00FD7
:1030D0000FD01848406940084000401C154948611D
:1030E0001548C068002824D01348C1682046884786
:1030F0001FE0002C0AD0382C11D10F48406800285E
:1031000003D00D4841682046884711E00A4880688E
:10311000002803D0084881682046884708E0064810
:103120000068002803D0044801682046884700BF93
:1031300000BF10BD000002404403002010B51B4832
:10314000C4684069C007C00F0FD0184840694008E4
:103150004000401C154948611548C068002824D02B
:103160001348C168204688471FE0002C0AD0382C3D
:1031700011D10F484068002803D00D48416820460F
:10318000884711E00A488068002803D00848816811
:103190002046884708E006480068002803D0044815
:1031A00001682046884700BF00BF10BD00001240E4
:1031B0005403002005200007006B0121C902884349
:1031C00040180521090708630846006B01218902A0
:1031D00088434018052109070863094880680121D0
:1031E00049028843401806498860642005490861FF
:1031F0000846006840218843403002490860704713
:103200000002005000001240FFB59DB00546164672
:103210001C46269FFF480168006801F0A3FD159039
:10322000FD480168FB48006801F09CFD1490FB48D4
:103230000168F848006801F095FD1390F8480168AE
:10324000F448006801F08EFD1290F34801680068B0
:1032500001F088FD1190F1480168EF48006801F025
:1032600081FD1090EE480168EB48006801F07AFD9E
:103270000F90EA480168006801F074FD0E90E8487C
:103280000168E648006801F06DFD0D90E4480168B2
:10329000006801F067FD0C902799084601F062FD77
:1032A00039460690384601F05DFD214604902046DF
:1032B00001F058FD0390049901F00EFD0590069968
:1032C00001F00AFD0790FDF739FD0991089001F022
:1032D000CBFC0B910A90FDF77BF91C9020461C99C2
:1032E000FDF754FD044638461C99FDF74FFD07468F
:1032F0001C992798FDF74AFD279013990F9801F024
:1033000089FD012189070B9001F02CFD1B900D997F
:10331000149801F0E1FC012189070B9001F022FDD6
:103320001A901199159801F075FD0A900E9901F007
:1033300071FD0B900C9901F0CFFC19901A99279808
:1033400001F010FD0B903846199901F00BFD0A9021
:103350000B9901F05FFD18902046199901F002FDCC
:103360000B901B99279801F0FDFC0A900B9901F036
:1033700051FD179038461B9901F0F4FC0B90204644
:103380001A9901F0EFFC0A900B9901F043FD169099
:10339000A449189801F0E6FC0B90A34801680B982B
:1033A00001F09AFCA04908609E49179801F0DAFCE8
:1033B0000B909E4801680B9801F08EFC9B490860B9
:1033C0009849169801F0CEFC0B90994801680B982B
:1033D00001F082FC964908609648189901F0C2FCF9
:1033E00029460A9001F078FC0B908F4801680B98F1
:1033F00001F072FC05468F48179901F0B3FC0A9062
:103400001E9901F069FC0B90884801680B9801F047
:1034100063FC1E908748169901F0A4FC31460A907F
:1034200001F05AFC0B90824801680B9801F054FCA3
:10343000064631467A48006801F094FC09907748C6
:103440001E99006801F08EFC079073480068012106
:10345000C90748402946059001F084FC0690079969
:1034600001F0D8FC0890099901F0D4FC72490A9047
:1034700001F078FC0B90674801680B9801F02CFC78
:103480006449086066481E99006801F06BFC31468B
:1034900009906248006801F065FC07905D4801688A
:1034A000284601F05FFC0690079901F015FC089092
:1034B000099901F0AFFC60490A9001F053FC0B90B0
:1034C000554801680B9801F007FC534908605448BF
:1034D0000168284601F046FC314609904E480068D4
:1034E00001F040FC07904B481E99006801F03AFC3F
:1034F0000690079901F08EFC0890099901F0ECFB09
:103500004D490A9001F02EFC0B90444801680B983D
:1035100001F0E2FB4149086008460168284601F0D5
:1035200021FC09903C481E99006801F01BFC3146C3
:1035300007903848006801F015FC0690079901F0E3
:10354000CBFB0890099901F065FC3B490A9001F01A
:1035500009FC0B90324801680B9801F0BDFB304923
:10356000086008460168006801F0FCFB06902B48E3
:103570000168006801F0F6FB0490274801680068C4
:1035800001F0F0FB029023480168006801F0EAFBBB
:103590000190029901F0A0FB0390049901F09CFBBB
:1035A0000590069901F098FB0790FDF7C7FB09917C
:1035B000089001F059FB0B910A90FDF709F81C9057
:1035C00014481C990068FDF7E1FB12490860124895
:1035D0001C990068FDF7DAFB0F4908600F481C9939
:1035E0000068FDF7D3FB0D4908600D481C99006881
:1035F000FDF7CCFB0A4908600846016806480068E8
:1036000001F0B0FB0590054801680248006801F030
:10361000A9FB13E08C010020900100209401002000
:10362000980100206F12033C9C010020A0010020A3
:10363000A4010020000020416F12833B04900599F3
:1036400001F0E8FB01218907069001F08BFB079050
:10365000FDF774FB0991089000F070FF01225207FA
:10366000174B0B910A90FDF723FA164A03C216482E
:1036700001681648006801F075FB05901448016860
:103680001448006801F06EFB0490059901F024FBDA
:1036900001218907069001F065FB0790FDF74EFBBD
:1036A0000991089000F04AFF01225207044B0B9148
:1036B0000A90FDF7FDF9084A03C221B0F0BD0000F1
:1036C000DCA54C4008010020980100209401002056
:1036D000900100208C010020100100200248806928
:1036E000C000C00F704700000000054070B50446E0
:1036F00000256D480068402188436B4908600846F2
:1037000000684021884340306749086000E06D1C34
:10371000202DFCDB6448006820218843203062496A
:10372000086000BF604800680007C00FFAD05E481C
:10373000C068082806D05C48C1685CA0FCF76EFD34
:10374000002070BD58480068202188435649086011
:103750000846006808218843083053490860D02093
:10376000886000BF504800680007C00FFAD04E487C
:10377000C068182804D056A0FCF750FD0020E0E7F0
:103780004948846000680821884308304649086039
:1037900000BF454800680007C00FFAD04248C06823
:1037A000282804D050A0FCF739FD0020C9E73E4886
:1037B00000680821884308303B49086008460068D3
:1037C0002021884320303849086000BF364800680F
:1037D0000007C00FFAD03448C068102804D049A0B0
:1037E000FCF71CFD0020ACE72F480068202188432F
:1037F0002D490860084600680821884308302A4996
:103800000860D120886000BF274800680007C00F0B
:10381000FAD02548C068402804D041A0FCF7FEFC3F
:1038200000BFFEE7204800680821884308301E4991
:10383000086000BF1C4800680007C00FFAD01A4893
:10384000C068582804D03DA0FCF7E8FC002078E7C9
:1038500015488068C6B2144800680421884312499C
:103860000860084600680821884308300E4908604F
:1038700000BF0D4800680007C00FFAD00A48006872
:1038800010218843084908600846006808218843D9
:1038900008300549086000BF03480068C006C00F33
:1038A0000128F9D030464CE7000012404932434429
:1038B0005F5354417274206661696C2C4932445FD5
:1038C00053544154555320253032580D0A000000FE
:1038D00049324320777269746520414457206661FC
:1038E000696C0D0A00000000493243207772697448
:1038F00065207265672061646472206661696C0D81
:103900000A00000049324320726570656174656485
:1039100020445F5354417274206661696C0D0A0043
:1039200049324320777269746520636F6E74726FD9
:103930006C206661696C0D0A00000000493243206A
:1039400072656164206661696C0D0A0070B5044699
:103950000E4600254D480068402188434B490860C9
:10396000084600684021884340304849086000E02C
:103970006D1C202DFCDB4548006820218843203049
:103980004249086000BF414800680007C00FFAD0F4
:103990003E48C068082806D03C48C1683CA0FCF7F7
:1039A0003DFC002070BD394800680821884308307C
:1039B00036490860D020886000BF3448006800079E
:1039C000C00FFAD03148C068182804D039A0FCF7DD
:1039D00025FC0020E6E72D480068202188432B497C
:1039E00008600846006808218843083027490860B5
:1039F0000846846000BF254800680007C00FFAD061
:103A00002248C068282804D030A0FCF707FC00201A
:103A1000C8E71E4800680821884308301B49086031
:103A20000846866000BF194800680007C00FFAD03A
:103A30001648C068282804D02BA0FCF7EFFB00BF75
:103A4000FEE7124800680821884308300F490860E3
:103A500000BF0E4800680007C00FFAD00B4800688E
:103A60000821884308300949086008460068102189
:103A7000884310300549086000BF04480068C0064C
:103A8000C00F0128F9D000208CE700000000124090
:103A9000493243445F5354417274206661696C2C0F
:103AA0004932445F53544154555320253032580D08
:103AB0000A0000004932432077726974652041444E
:103AC00057206661696C0D0A0000000049324320EE
:103AD000777269746520726567206164647220661C
:103AE00061696C0D0A0000004932432077726974E5
:103AF0006520636F6E74726F6C206661696C0D0A6D
:103B000000000000C206D20E01219140014A11605E
:103B10007047000000E100E005200007006B012174
:103B20000903884340180521090708630846006B0C
:103B30000121490388434018052109070863084605
:103B4000006B012189038843401805210907086398
:103B50000846006B0121C903884340180521090765
:103B600008630846406B0121C902884340180521BB
:103B7000090748635D48806801214905884340186A
:103B80005A49886008468068C902884340185749E6
:103B90008860084680684903884340185349886014
:103BA00008464069800080080321890740184F4972
:103BB00048610846406903210907884340184B497A
:103BC00048610846C0693021884330304749C861A0
:103BD00047484068072109028843012189024018AB
:103BE000434948600846406807210903884301218A
:103BF000890340183E49486008460068000A0002F0
:103C0000401C086008460068FF2109028843FF3015
:103C10000130374908600846806808218843083029
:103C20003349886008468068C91488434018304981
:103C30008860084680680121C904884340182C49DF
:103C4000886008468068490288434018284988608F
:103C50000846806801210904884340182449886087
:103C600008468068890188434018214988600846D1
:103C7000806840084000401C8860084680688915BC
:103C8000884340181A4988601A484862642088624C
:103C900018480863642048631648C86064200861B7
:103CA000144888616420C86111484030C06B4008E6
:103CB0004000401C0E494031C8630846C06B0221D9
:103CC0008843801C0A494031C8630846C06B042100
:103CD0008843001D06494031C8630846C06B08216F
:103CE0008843083002494031C863704700020050E1
:103CF000000004404204000070B553484468E007E7
:103D0000C00F09D001205049486050480068002881
:103D100002D04E49086880470220044208D04A4930
:103D200048604A488068002802D04849886880472F
:103D30000420044208D044494860444800690028EF
:103D400002D04249086980470820044208D03E4911
:103D500048603E488069002802D03C498869804715
:103D60003948056946691020054218D0384800686E
:103D7000002806D0344800693649084032490861B5
:103D800006E0314800690121090588432E49086190
:103D90002E484068002802D02C49486880470120FE
:103DA0000005054217D02A480068002806D026489A
:103DB0000069294908402449086105E02248006952
:103DC00010218843204908612048C068002802D09B
:103DD0001E49C86880471020064218D01C48006859
:103DE000002806D0184840691A4908401649486119
:103DF00006E01548406901210905884312494861D8
:103E000012484069002802D01049486980470120C3
:103E10000005064217D00E480068002806D00A4860
:103E200040690D4908400849486105E00648406975
:103E300010218843044948610448C069002802D021
:103E40000249C869804770BD4000044098020020C4
:103E5000A80100201F000F000F001F0070B53D4893
:103E60004468E007C00F09D001203A4948603A4849
:103E70000068002802D038490868804702200442C0
:103E800008D03449486034488068002802D032495C
:103E9000886880470420044208D02E4948602E4894
:103EA0000069002802D02C49086980470820044294
:103EB00008D02849486028488069002802D026494F
:103EC00088698047234805694669102005420DD05E
:103ED000204800690121090588431E4908611E48E0
:103EE0004068002802D01C4948688047012000052E
:103EF00005420CD017480069102188431549086114
:103F00001548C068002802D01349C86880471020AF
:103F100006420DD00F4840690121090588430D492B
:103F200048610D484069002802D00B494869804724
:103F30000120000506420CD0064840691021884344
:103F4000044948610448C069002802D00249C86990
:103F5000804770BD40001440B802002010B50748EB
:103F600000684021884340300449086004480068E4
:103F7000002802D002480068804710BD00020050AF
:103F8000BC01002010B501210846FEF715FA0522F4
:103F90001249302000F0A9FD052211492A2000F025
:103FA000A4FD0121212000F091FD0121222000F03B
:103FB0008DFD2821252000F089FD0421312000F00D
:103FC00085FD0F21262000F081FD0F21202000F02B
:103FD0007DFD01210846FEF741FA10BD8101002058
:103FE0008601002010B50446184802780078401C6D
:103FF000164B18701648845400211A4612788154C2
:1040000018460078401C102803D20A2C01D0002C3E
:1040100019D100220E490420FCF7DEF8002803D055
:1040200000200A49087010BD002304E00849C85C5C
:1040300000F010F85B1C054800788342F6DB002096
:104040000249087000BF00BFEDE70000C00100207A
:10405000D802002000BF0A4989690902C90F012955
:10406000F9D0074908600A2809D100BF04498969C5
:104070000902C90F0129F9D00D21014A11607047C9
:104080000000054070B51B4800694607760F052EF5
:1040900000D90426022E03D0B00017490D581EE0A7
:1040A0001448006A0004840F012C00D9641E114AD0
:1040B000126A1203D20F01D0104A00E0104A0D4BD1
:1040C0001B6ADB05DB0D9B1C10465843094A126A2C
:1040D0009204D20E911CFCF7CBF9E040054605484E
:1040E00080690007000F411C2846FCF7C1F905490B
:1040F000086070BD000200500400002000805101E3
:10410000001BB700000000207047704710B5204822
:10411000806840084000401C1D4988601D480068B8
:10412000401C1C4908601C48006800282FD000244F
:104130002BE01420604319490858002824D014208B
:10414000604340188068401E14216143134A891857
:10415000886014206043114640188068002813D1FD
:10416000142262430B46D218106914226243D218FB
:10417000D1688847142060430849401841681420DA
:104180006043064A80188160641C012CD1DB10BD9D
:10419000000001401802002008020020F402002064
:1041A00010B52048806A40084000401C1D498862C4
:1041B0001D480068401C1C4908601C480068002815
:1041C0002FD000242BE01420604319490858002800
:1041D00024D01420604340188068401E142161439D
:1041E000134A89188860142060431146401880687B
:1041F000002813D1142262430B46D21810691422EE
:104200006243D218D1688847142060430849401897
:10421000416814206043064A80188160641C012CA8
:10422000D1DB10BD000001401C0200200C02002068
:104230000803002010B52048806840084000401C5A
:104240001D4988601D480068401C1C4908601C48C6
:10425000006800282FD000242BE014206043194967
:104260000858002824D01420604340188068401E5D
:1042700014216143134A8918886014206043114651
:1042800040188068002813D1142262430B46D218CC
:10429000106914226243D218D16888471420604301
:1042A00008494018416814206043064A801881601C
:1042B000641C012CD1DB10BD000011402002002045
:1042C000100200201C03002010B52048806A40081E
:1042D0004000401C1D4988621D480068401C1C4964
:1042E00008601C48006800282FD000242BE0142010
:1042F000604319490858002824D01420604340180E
:104300008068401E14216143134A89188860142074
:104310006043114640188068002813D1142262437C
:104320000B46D218106914226243D218D16888470C
:104330001420604308494018416814206043064A2D
:1043400080188160641C012CD1DB10BD000011407D
:1043500024020020140200203003002070B50A4817
:10436000C4690A48C5690A480068002803D0204685
:1043700007490968884707480068002803D028468D
:1043800004490968884770BD000005400040154099
:10439000AC010020B401002010B50548C4690548EF
:1043A0000068002803D0204602490968884710BDEC
:1043B00000001540B001002010B508480068082131
:1043C000884308300549086005480068002803D084
:1043D000002003490968884710BD000000400040E4
:1043E0004C020020F8B5040C8BB2264682B25E4324
:1043F000104658430D0C370C360400218019164620
:1044000079416E43370C36048019264679416E4354
:104410008919F8BD30B47446641E2578641CAB421B
:1044200000D21D46635D5B00E31830BC18470000F6
:104430004900CA02104300D004204A0D01D00122D5
:104440001043054A490D914201D102210843012838
:1044500000D1052070470000FF070000F8B50446B2
:104460004F1EC8000838211815461E4608684968BE
:1044700006223B46934310D02A463346FCF718FBEE
:104480003A46D200083AA3181A687F1E5B68FDF707
:1044900048F906223B469343EED1022F23D0042F46
:1044A00011D0062F2FD12A463346FCF701FBE36AD1
:1044B000A26AFDF736F92A463346FCF7F9FA636A31
:1044C000226AFDF72EF92A463346FCF7F1FAE36932
:1044D000A269FDF726F92A463346FCF7E9FA636933
:1044E0002269FDF71EF92A463346FCF7E1FAE36834
:1044F000A268FDF716F92A463346FCF7D9FA636835
:104500002268FDF70EF9F8BD034A10B50020110727
:10451000FDF734F910BD000001FDFFFF0022064940
:104520001820FBF759FE002804D100BFFFF7D6F88A
:104530000028FBD000BFFEE726000200F0B50446CD
:104540004F008F4889B07F080D46079187422DDBC9
:104550004042381820430DD08A48874203DC874206
:1045600019D1002C17D0012220462946FDF706F963
:1045700009B0F0BD844A854B20462946FCF798FADD
:104580000E460746824A834B20462946FCF790FA9E
:104590003A4633464DE00120FCF7ADFC00221346BD
:1045A00010461146FCF752F809B0F0BD7A48874230
:1045B00043DAF920800587420BDA20462946FFF7C7
:1045C00037FF042801D1FFF79FFF2046294609B095
:1045D000F0BD22462B4620462946FCF769FA0646DE
:1045E00002466E480F460B4606217844FFF736FF19
:1045F00032463B46FCF75CFA00906948019132462E
:104600003B4604217844FFF729FF32463B46FCF73E
:104610004FFA00225A4BFDF784F802460B460199E7
:104620000098FCF713F822462B46FCF741FA224685
:104630002B46FDF776F809B0F0BD2046504C6900D6
:10464000490800222346FDF782F80022D243FDF7F5
:1046500095F80546024653480E460B460621784417
:10466000FFF7FCFE2A463346FCF722FA00904E483C
:1046700001912A46334604217844FFF7EFFE2A468B
:104680003346FCF715FA00222346FDF74AF803915A
:1046900002902846314600F0E7FA069043480C465F
:1046A000874217DB68460FC8FBF7D0FF02460B4670
:1046B00021460698FCF7FCF92346069AFDF731F8E7
:1046C0000122FDF75BF8304A304BFDF735F8304AF0
:1046D000304B49E000270B463A4621460698FDF745
:1046E00020F8059104903A46234638462146FCF7C7
:1046F000DFF92A463346FDF72AF8059B049AFBF7B3
:10470000A5FF05460E4668460FC8FBF79FFF0191BF
:104710000090012228463146FDF730F81A4A1B4B1B
:10472000FDF715F805460E46012221460698FDF7CD
:1047300025F8019B009AFCF7BBF933462A46FCF7A3
:10474000FBFF05460E46012238462146FDF716F8C6
:104750000F4C174F22463B46FCF7F9FF2A463346DB
:10476000FCF7F5FF22463B46FCF7F1FF079A002ACB
:1047700000DD60E70122D207514009B0F0BD000022
:104780000000F03F0000F07F075C143326A6913C48
:10479000182D4454FB21F93F0000E03F120A0000AD
:1047A000280A00009E090000B40900003333EF3FDF
:1047B000FB21E93F10B500247520FEF797FF044662
:1047C0007520FEF793FF04467520FEF78FFF044621
:1047D000204610BD00E0401E0028FCDC704701466A
:1047E0000020C043704770B504460D462046FFF7D1
:1047F000F9FB204670BD000010B559204F490860F4
:10480000162008608820086001210220FEF762F867
:104810000120FEF74FF84A48FDF724FF4948006998
:10482000C008C000801C47490861FDF74DFE0446E2
:1048300000204249086001220421FDF7D3FD012236
:104840000B210220FDF7CEFD012207211046FDF7C6
:10485000C9FD01220E211046FDF7C4FD01220221EF
:104860001046FDF7BFFD002201210220FDF7BAFD31
:10487000002211460220FDF7B5FD00220B21012088
:10488000FDF7B0FD00220A210120FDF7ABFD01225A
:104890000C210020FDF7A6FD01220D210020FDF7CF
:1048A000A1FD01220E210020FDF79CFD01220F2118
:1048B0000020FDF797FD002202210120FDF792FD67
:1048C000012211461046FDF78DFD0D210120FDF757
:1048D000C5FD0C210020FDF76FFD04210020FDF730
:1048E0006BFD0B210220FDF767FD07210120FDF77D
:1048F00063FD0E210120FDF75FFD02210120FDF780
:10490000ADFD01210846FDF757FDFEF78FF80721A1
:104910000220FDF713FF012202210020FEF798F884
:104920000023094A0A211846FEF7F0F90020FEF795
:1049300037F80020FEF7E4FA10BD00000001005037
:10494000006CDC02000200500B41000000BFFFF7CA
:1049500053FFFDF799FDFFF7DFF800F0F3F80023B0
:104960001A461946184600F033F8FEF723FC00F00B
:104970006BF8FFF71FFFC4B2682C02D10FA0FBF742
:104980004DFC01210846FDF769FDFFF7FBFA6423A2
:104990001A461946184600F01BF8C8231A4619464D
:1049A000184600F015F800231A461946184600F07C
:1049B0000FF801E0FDF79EFBFCE70000206368654F
:1049C000636B6564206D7075363035300D0A0000FC
:1049D00030B51C4CE46B640864001A4DEC632C4643
:1049E000E46B0225AC43174DEC632C46E46B0425C5
:1049F000AC43144DEC632C46E46B0825AC43114DDD
:104A0000EC632C032061E161A26263632C46E46BDA
:104A100064086400641CEC632C46E46B0225AC4320
:104A2000A41C084DEC632C46E46B0425AC43241D08
:104A3000044DEC632C46E46B0825AC430834014D6F
:104A4000EC6330BD4000044010B500216B20FEF740
:104A50007DFF7D200001FFF7BDFE00216B20FEF7EA
:104A600075FF7D200001FFF7B5FE07211920FEF735
:104A70006DFF1920FEF73AFE04467D200001FFF786
:104A8000A9FE04211A20FEF761FF1A20FEF72EFE70
:104A900004467D200001FFF79DFE08211B20FEF744
:104AA00055FF1B20FEF722FE04467D200001FFF784
:104AB00091FE08211C20FEF749FF1C20FEF716FE80
:104AC00004467D200001FFF785FE10BD10B50446A9
:104AD0000B4600F02DF8204600F0B0F8184600F024
:104AE000ADF800F01BF8284610BDF0B506460B46A1
:104AF000144600F01DF8304600F0A0F807460025E7
:104B000005E018785B1C00F099F8681CC5B2A54256
:104B1000F7DB00F003F83846F0BD0000034880687A
:104B20008008800001498860704700000000034051
:104B30000348806880088000401C014988607047F5
:104B40000000034010B53A488068012109038843FA
:104B500040183749886005200007C0680121090313
:104B60008843401805210907C8600846C06801212C
:104B70000903884305210907C8600846806B40087F
:104B80004000401C88630846806B02218843801CDB
:104B90000521090788630846806B04218843001DAE
:104BA0000521090788630846806B0821884308307F
:104BB0000521090788631F480069802188431D4932
:104BC000086108460069FF210131884319490861DD
:104BD000012200211046FDF705FC00210120FDF710
:104BE0003DFC15484068000C0004401D1249486017
:104BF00008468068082188430F4988600846806815
:104C00001021884310300C4988600846806880086D
:104C10008000886008460068C91488430649086017
:104C200008460068F821884340300349086010BDF9
:104C300000020050400000500000034001460948B7
:104C40000162006840084000401C064A106000BF36
:104C500004480068C007C00F0128F9D00148006966
:104C6000C0B2704700000340F8B506460C46FCF79A
:104C7000B7FD05000F4600D00120014349000A4856
:104C80004908411A0CD5002E01D0012100E0002175
:104C90000C4361004908401A02D40120FCF72BF9AB
:104CA00028463946F8BD00000000F07F10B5002905
:104CB0000AD00878002807D005487844FDF78EF917
:104CC000002801D0002010BD0248784410BD00002B
:104CD0004A0400004204000070B501250400ED07FD
:104CE0004C4020D4441A01D2001B0919C60D4B00B8
:104CF000F2B2FF2A29D01B0E2CD000020C02D31ACC
:104D00002C43DC402843051910D2280A02D3401C4A
:104D10006D0611D0761EF6058019FF2A00DA70BDE7
:104D2000C00DC00570BD694000F07AF80120054350
:104D3000C541521C761CE8E764089C40C9016140EB
:104D40008900E7D10124A043E4E71B0E440200D010
:104D5000034870BD002AFCD1C00FC00770BD00BF62
:104D60000000C07F70B5420064414B005C41120EF0
:104D700039D01B0E38D0FF2A3CD0FF2B3AD040024E
:104D80004902400A490A060045184E43000A090A2A
:104D9000D2184843ED017F3A0104761A4019310CCC
:104DA0004318990F04D001215B0849075B1A521C74
:104DB000D80904D3401CF50301D19D0607D0FF2A72
:104DC00008D2D50506D0E4072043401970BD01255F
:104DD000A843F4E7002A01DCE00770BD2402FF20AD
:104DE0002043C00570BD1B0EFF2A03D0FF2B01D04E
:104DF000E00770BDFF2645003606B54206D84D00D7
:104E0000B54203D8D218FF2A00D0E7E7004870BDAA
:104E10000000C07F70B501250400ED074C4022D48E
:104E2000441A02D26C40001B0919C60D4B00F2B2A5
:104E3000FF2A4BD01B0E50D000020C02D31A2C4379
:104E4000DC40A843051B05D5AD0019D36D08761EBF
:104E5000521E37D0F605280A01D2801970BD704164
:104E60006D0603D070BD6940FFF73CFF9C4009020E
:104E70006140490001D0401E70BD0124A04370BDB7
:104E80006D081DD001202B0C01D12D0410302B0EEC
:104E900001D12D0208302B0F01D12D01001DAB0FC8
:104EA00001D1AD00801CEB0F01D16D00401C6D00E5
:104EB000361A121A680AF5054019012A02DB70BD7C
:104EC000002070BDC036300AC00770BD1B0E440202
:104ED00001D1FF2B00D1024870BD002AF0D070BD77
:104EE0000000C07F03B402487844844603BC604796
:104EF0005DC2FFFF01000000020000000200000090
:104F0000040000003031323334353637383941420D
:104F1000434445464030580030313233343536371B
:104F200038396162636465664030780004000008C7
:104F30000000000000000002000100001080807FDF
:104F40007E7D7C7B7A7978777676757473727171F1
:104F5000706F6E6E6D6C6C6B6A6A696868676666A6
:104F6000656464636362616160605F5F5E5E5D5D36
:104F70005C5C5B5B5A5A59595858575756565555A9
:104F8000555454535352525251515050504F4F4F09
:104F90004E4E4D4D4D4C4C4C4B4B4B4A4A4A494959
:104FA000494848484747474746464645454544449B
:104FB000444443434343424242424141418182830C
:104FC0008485868788898B8C8D8E8F919293959618
:104FD00097999A9C9D9FA0A2A3A5A7A8AAACAEB0A2
:104FE000B2B3B5B7B9BCBEC0C2C5C7C9CCCED1D4A7
:104FF000D7D9DCDFE2E6E9ECF0F3F7FAFE000000D7
:10500000555555555555C53F7D6FEB0312D6D4BF49
:105010005544880E55C1C93F3B8F68B52882A4BF4F
:1050200088B20175E0EF493F09F7FD0DE13D023F10
:105030004B2D8A1C273A03C0C88A599CE52A004098
:1050400059018D1B6C06E6BF82922EB1C5B8B33FE5
:1050500002400000000000A0000000000540000029
:10506000000000C8000000000C4000000000409C50
:1050700000000000194000000020BCBE000000003D
:1050800034400000BFC91B8E00000004B540000082
:10509000504BCFD06607E2CF010000006C4100000A
:1050A0003E8251AADFEEA73401000000D942000081
:1050B000DCB5A0E23A301F97FFFFFFFFB4450000C8
:1050C000FD25A0C8E9A3C14FFFFFFFFFFF3F000080
:1050D0000000008000000000FF3F00000000008092
:1050E00000000000205100000000002050020000DD
:1050F00004010000705300005002002078050000F9
:10510000200100001C00000043000000F8FFFFFF2A
:105110000C0000000E0000000F0000002E00000038
:1051200000805101001BB700008000000080510189
:105130001027000000805101000000000000000066
:10514000000000000000000000000000000000005F
:10515000000000000000000000000000000000004F
:10516000000000000000000000000000000000003F
:10517000000000000000000000000000000000002F
:10518000000000000000000000000000000000001F
:10519000000000000000000000000000000000000F
:1051A00000000000000000000000000000000000FF
:1051B00000000000000000000000000000000000EF
:1051C00000000000000000000000000000000000DF
:1051D00000000000000000000000000000000000CF
:1051E00000000000000000000000000000000000BF
:1051F00000000000000000000000000000000000AF
:10520000000000000000000000000000000000009E
:10521000000000000000000000000000000000008E
:10522000000000000000000000000000000000007E
:10523000000000000000000000000000000000006E
:10524000000000000000000000000000000000005E
:105250000000000000000000000070420AD7233C5C
:10526000000000000000003F0AD7233C000020415E
:10527000000000000000000000000000000070427C
:105280000AD7233C000000000000003F0AD7233C5F
:1052900000002041000000000000A040000000408D
:1052A0000034431010013443101002000000803F0E
:1052B00000000000000000000000000000000000EE
:1052C00000000000000000000000000000000000DE
:1052D00000000000000000000000000000000000CE
:1052E00000000000000000000000000000000000BE
:1052F00000000000000000000000000000000000AE
:10530000000000000000000000000000000000009D
:10531000000000000000000000000000000000008D
:10532000000000000000000000000000000000007D
:10533000000000000000000000000000000000006D
:10534000000000000000000000000000000000005D
:105350000000000000000000001BB700000000007B
:10536000000000000000000000000000000000003D
:040000050000019165
:00000001FF
